{
  "_format": "hh-sol-artifact-1",
  "contractName": "Depeg",
  "sourceName": "contracts/Depeg.sol",
  "abi": [
    {
      "inputs": [],
      "name": "messWithPeg",
      "outputs": [],
      "stateMutability": "nonpayable",
      "type": "function"
    }
  ],
  "bytecode": "0x6080604052600080546001600160a01b031990811673bebc44782c7db0a1a60cb6fe97d0b483032ff1c7179091556001805490911673a0b86991c6218b36c1d19d4a2e9eb0ce3606eb4817905560001960025534801561005e57600080fd5b506102118061006e6000396000f3fe608060405234801561001057600080fd5b506004361061002b5760003560e01c80633ef1bc0914610030575b600080fd5b61003861003a565b005b6001546040516370a0823160e01b81523060048201526000916001600160a01b0316906370a0823190602401602060405180830381865afa158015610083573d6000803e3d6000fd5b505050506040513d601f19601f820116820180604052508101906100a79190610199565b60015460005460405163095ea7b360e01b81526001600160a01b03918216600482015260248101849052929350169063095ea7b3906044016020604051808303816000875af11580156100fe573d6000803e3d6000fd5b505050506040513d601f19601f8201168201806040525081019061012291906101b2565b5060008054604051630f7c084960e21b815260016004820152602481018390526044810184905260648101929092526001600160a01b031690633df0212490608401600060405180830381600087803b15801561017e57600080fd5b505af1158015610192573d6000803e3d6000fd5b5050505050565b6000602082840312156101ab57600080fd5b5051919050565b6000602082840312156101c457600080fd5b815180151581146101d457600080fd5b939250505056fea26469706673582212206171e9b7457d4a9ac097e65da6c12e36e378ebe0e2e394f81bc37184d19c924964736f6c634300080a0033",
  "linkReferences": {},
  "deployedLinkReferences": {}
}